:020000040000FA
:0600000065EF01F01200A3
:020006001200E6
:06000800A4EF00F012005D
:02000E000100EF
:0C001000F4020000800000001A00000054
:04001C00D9CFE6FF53
:10002000E1CFD9FFFE0EDB50CB6EFE0EDB407F0B27
:10003000BE6EBD9ABD98E552E7CFD9FF1200946A13
:10004000BD86BD84CA82CA80CA84060EC16E9290E3
:1000500092929294929696809682968412000001D3
:100060008D6B80868094809280900001A46BA56B3C
:10007000A53504E2A4516408000EA55504E3A42BA1
:10008000000EA523F5D784A402D080C08DF084A2F1
:1000900002D081C08DF084A002D082C08DF0809605
:1000A0008084A46BA56BA53504E2A4516408000EFE
:1000B000A55504E3A42B000EA523F5D784A402D0F4
:1000C00083C08DF084A202D084C08DF084A002D0C1
:1000D00085C08DF080948082A46BA56BA53504E269
:1000E000A4516408000EA55504E3A42B000EA5231B
:1000F000F5D784A402D086C08DF084A202D087C038
:100100008DF084A002D089C08DF080928080A46B95
:10011000A56BA53504E2A4516408000EA55504E3BF
:10012000A42B000EA523F5D784A402D08AC08DF09D
:1001300084A202D08BC08DF084A002D08CC08DF040
:1001400000018D5100D01200DACFE4FFE2CFDAFFD8
:10015000E652E552E5CFDAFF110071DF80DF0001E2
:100160008D5118E08DC0E6FF59DFE552320EE66E84
:100170004EEC01F0E552E66A51DFE552900E0001C7
:100180008E25E96E000E8F21EA6E8DC0EFFF8E2B5B
:10019000000E8F23995131E00001A46BA56BA535AA
:1001A00004E2A4510908000EA55527E3900EA425EA
:1001B000E96E000EA521EA6EEF50E66E2FDFE552E4
:1001C000320EE66E4EEC01F0E552E66A27DFE552AC
:1001D000050EE66E4EEC01F0E552900E0001A425EE
:1001E000E96E000EA521EA6EEF6A00018E6B8F6B3F
:0E01F0000001A42B000EA523D2D7B0D7120019
:0201FE000E0EE3
:10020000F66E000EF76E000EF86E00010900F55054
:100210009F6F0900F550A06F03E19F6701D03DD0AB
:100220000900F5509A6F0900F5509B6F0900F550D1
:100230009C6F09000900F550E96E0900F550EA6E5F
:10024000090009000900F5509D6F0900F5509E6FE7
:1002500009000900F6CFA1F0F7CFA2F0F8CFA3F084
:100260009AC0F6FF9BC0F7FF9CC0F8FF00019D53AA
:1002700002E19E5307E00900F550EE6E9D07F8E29B
:100280009E07F9D7A1C0F6FFA2C0F7FFA3C0F8FFF1
:0C02900000019F07000EA05BBFD712000A
:04029C00FF0EE3501E
:1002A000036EEF0E01D0F30EE76EE72E55EF01F06F
:1002B0000C0E026EE76AE72E5BEF01F0022E5AEF9A
:0A02C00001F0032E53EF01F01200CD
:0602CA0014EE00F024EE2A
:1002D00000F0F86A019CFFEC00F003EC00F0ADECDC
:0602E00000F0FBD7120044
:0A02E60000EE00F00F0EEE6AEA626F
:0402F000FDD7120024
:0C02F400EFE1D5C9BDB3A99F978E867FAE
:0E030000770000000000000000000000000078
:020000040030CA
:0100010021DD
:010003000EEE
:00000001FF
