:020000040000FA
:0600000000EF02F0120007
:020006000000F8
:0600080068EF01F0120098
:02000E00D9CF48
:10001000E6FFE1CFD9FFE6529568819A8188818613
:10002000818681868350DF6E819681968196819844
:10003000DF5000D0E552E552E7CFD9FF1200D9CF0B
:10004000E6FFE1CFD9FFD950FC0FE96EFF0EDA20B1
:10005000EA6E020EEE1801E1ED5004E0D8DF800BED
:1000600001E0FCD7D950FC0FE96EFF0EDA20EA6EF2
:10007000010EEE1801E1ED5002E1818A01D0819A72
:100080008198956AFE0EDB50836E8186818681861B
:1000900081968196819681989568E552E7CFD9FF40
:1000A0001200D9CFE6FFE1CFD9FF010EE66EE66A76
:1000B000FE0EDBCFE6FFC3DFE552E552E552E55227
:1000C000E7CFD9FF1200D9CFE6FFE1CFD9FF0F0E5E
:1000D000E126DF6A230EF36E030EF3CFDBFF390E4A
:1000E000F36E040EF3CFDBFF360EF36E050EF3CF87
:1000F000DBFF330EF36E060EF3CFDBFF300EF36E35
:10010000070EF3CFDBFF380EF36E080EF3CFDBFFE5
:10011000350EF36E090EF3CFDBFF320EF36E0A0ECF
:10012000F3CFDBFF2A0EF36E0B0EF3CFDBFF370EA0
:10013000F36E0C0EF3CFDBFF340EF36E0D0EF3CF28
:10014000DBFF310EF36E0E0EF3CFDBFF010E806E80
:10015000DB6A040EF36E010EDBCFF4FFF350F45CA8
:1001600009E2070E841406E18050E824806E010E37
:10017000DB2AEFD7070E84142FE0070E8414010842
:1001800006E1010EDB50E76E020EE7CFDBFF070E44
:100190008414020807E1010EDB50040FE76E020E23
:1001A000E7CFDBFF070E8414040807E1010EDB50E4
:1001B000080FE76E020EE7CFDBFFD950030F026E88
:1001C000DACF03F0020EDB500F010224E96E000EBD
:1001D0000320EA6EEFCFDFFFDF50026E0F0EE15C0F
:1001E00003E200D0E16AE552E16E0250E552E7CF4A
:1001F000D9FF1200C70E936E816A9568F00E926E59
:10020000070EC16EF086F28E0C0EBD6E060ECA6E23
:100210001200D9CFE6FFE1CFD9FFFE0EDB502A0A4C
:100220004EE0090A47E0130A40E0090A39E0010AF2
:1002300032E00F0A2BE0010A24E0030A1DE0010A64
:1002400016E0070A0FE0010A08E0030A01E03CD0CB
:10025000EE0ECB6E770EBE6E37D0D40ECB6E6A0E1E
:10026000BE6E32D0BD0ECB6E5E0EBE6E2DD0B00E09
:10027000CB6E580EBE6E28D09F0ECB6E4F0EBE6E4C
:1002800023D08E0ECB6E470EBE6E1ED07E0ECB6E72
:100290003F0EBE6E19D0770ECB6E3B0EBE6E14D0E5
:1002A000C80ECB6E640EBE6E0FD0A90ECB6E540E70
:1002B000BE6E0AD0960ECB6E4B0EBE6E05D0860E6D
:1002C000CB6E430EBE6E00D0E552E7CFD9FF1200D1
:1002D000DACFE4FFE2CFDAFFE652F0B0F090E55279
:1002E000E5CFDAFF1100D9CFE6FFE1CFD9FF020E4B
:1002F000E12680DF020EE66EE66A380EE66E9FDECD
:10030000E552E552E552000EE66EE66A380EE66EFC
:1003100096DEE552E552E552000EE66EE66A0E0EF6
:10032000E66E8DDEE552E552E552000EE66EE66AB7
:10033000010EE66E84DEE552E552E552946AC3DEB4
:1003400000018A6F8AC0E6FF64DFE552F7D7020E2C
:10035000E15C02E2E16AE552E16EE552E7CFD9FFE6
:02036000120089
:0E036200060EF66E000EF76E000EF86E00012D
:100370000900F550856F0900F550866F03E1856728
:1003800001D03DD00900F550806F0900F550816F14
:100390000900F550826F09000900F550E96E090067
:1003A000F550EA6E090009000900F550836F090055
:1003B000F550846F09000900F6CF87F0F7CF88F079
:1003C000F8CF89F080C0F6FF81C0F7FF82C0F8FF48
:1003D0000001835302E1845307E00900F550EE6EFB
:1003E0008307F8E28407F9D787C0F6FF88C0F7FFD4
:1003F00089C0F8FF00018507000E865BBFD7120099
:1004000014EE00F024EE00F0F86A019CB1EC01F06B
:0C04100015EC02F073EC01F0FBD71200B9
:04041C0000EE00F0FE
:0A0420000F0EEE6AEA62FDD712002B
:02042A001200BE
:020000040030CA
:0100010021DD
:010003000EEE
:00000001FF
