:020000040000FA
:0600000048EF02F01200BF
:020006001200E6
:06000800A6EF00F012005B
:02000E000100EF
:0C001000BA040000800000001200000094
:04001C00D9CFE6FF53
:10002000E1CFD9FF0001806BFD0EDBCF02F0FE0EA9
:10003000DBCF03F0D890035004E6E80E025C030E19
:1000400003580CE3D950FD0FE96EFF0EDA20EA6E7B
:10005000E80EEE5E030EED5A802BE6D7816BFD0EA7
:10006000DBCF02F0FE0EDBCF03F0D890035004E6A6
:10007000640E025C000E03580CE3D950FD0FE96ECC
:10008000FF0EDA20EA6E640EEE5E000EED5A812B52
:10009000E6D7826BFD0EDBCF02F0FE0EDBCF03F066
:1000A000D890035004E60A0E025C000E03580CE3DD
:1000B000D950FD0FE96EFF0EDA20EA6E0A0EEE5EF1
:1000C000000EED5A822BE6D7836BFD0EDBCF02F0DC
:1000D000FE0EDBCF03F0D890035004E6010E025C65
:1000E000000E03580BE3D950FD0FE96EFF0EDA2026
:1000F000EA6EEE06000EED5A832BE7D7E552E7CF06
:10010000D9FF1200C4500001906F916B130E910340
:10011000F3CF91F09003F3CF90F0F4509127030EBA
:10012000936E946A956AF00EF26E920ED56E0B0E77
:10013000D76EDC0ED66EC28EC298C286C280C18EC9
:10014000C19CC186C194C192C1801200DACFE4FF84
:10015000E2CFDAFFF3CFE4FFF4CFE4FFE652F2A4FC
:1001600015D0C284C2B4FED7C4500001906F916B09
:10017000130E9103F3CF91F09003F3CF90F0F4506E
:100180009127F2940B0ED76EDC0ED66EE552E5CFBA
:10019000F4FFE5CFF3FFE5CFDAFF1100B3DF90C046
:1001A000E6FF91C0E6FF3ADFE552E5520001926BAF
:1001B000936B0A0E93AF02D0D89003D0925D000EDD
:1001C00093591AE280C002F0036A02BE036892519A
:1001D000021802E1935103180BE1860E9225E96E95
:1001E000000E9321EA6EEFCF94F0956B94BF956962
:1001F000922B000E9323DDD794C082FF700E836E86
:10020000926B936B640E93AF02D0D89003D0925D43
:10021000000E935904E2922B000E9323F3D78368C8
:10022000926B936B640E93AF02D0D89003D0925D23
:10023000000E935904E2922B000E9323F3D7926B96
:10024000936B0A0E93AF02D0D89003D0925D000E4C
:1002500093591AE281C002F0036A02BE0368925108
:10026000021802E1935103180BE1860E9225E96E04
:10027000000E9321EA6EEFCF96F0976B96BF9769C9
:10028000922B000E9323DDD796C082FFB00E836EB3
:10029000926B936B640E93AF02D0D89003D0925DB3
:1002A000000E935904E2922B000E9323F3D7836838
:1002B000926B936B640E93AF02D0D89003D0925D93
:1002C000000E935904E2922B000E9323F3D7926B06
:1002D000936B0A0E93AF02D0D89003D0925D000EBC
:1002E00093591AE282C002F0036A02BE0368925177
:1002F000021802E1935103180BE1860E9225E96E74
:10030000000E9321EA6EEFCF98F0996B98BF996930
:10031000922B000E9323DDD798C082FFD00E836E00
:10032000926B936B640E93AF02D0D89003D0925D22
:10033000000E935904E2922B000E9323F3D78368A7
:10034000926B936B640E93AF02D0D89003D0925D02
:10035000000E935904E2922B000E9323F3D7926B75
:10036000936B0A0E93AF02D0D89003D0925D000E2B
:1003700093591AE283C002F0036A02BE03689251E5
:10038000021802E1935103180BE1860E9225E96EE3
:10039000000E9321EA6EEFCF9AF09B6B9ABF9B6998
:1003A000922B000E9323DDD79AC082FFE00E836E5E
:1003B000926B936B640E93AF02D0D89003D0925D92
:1003C000000E935904E2922B000E9323F3D7836817
:1003D000926B936B640E93AF02D0D89003D0925D72
:1003E000000E935904E2922B000E9323F3D7D7D635
:0203F0001200F9
:0E03F2000E0EF66E000EF76E000EF86E000195
:100400000900F550A16F0900F550A26F03E1A16743
:1004100001D03DD00900F5509C6F0900F5509D6F4B
:100420000900F5509E6F09000900F550E96E0900BA
:10043000F550EA6E090009000900F5509F6F0900A8
:10044000F550A06F09000900F6CFA3F0F7CFA4F094
:10045000F8CFA5F09CC0F6FF9DC0F7FF9EC0F8FF47
:1004600000019F5302E1A05307E00900F550EE6E32
:100470009F07F8E2A007F9D7A3C0F6FFA4C0F7FFD3
:10048000A5C0F8FF0001A107000EA25BBFD71200B4
:1004900014EE00F024EE00F0F86A019CF9EC01F093
:0C04A00003EC00F0CEEC00F0FBD71200E3
:0404AC0000EE00F06E
:0A04B0000F0EEE6AEA62FDD712009B
:0604BA000000000000003C
:0C04C000C0F9A4B0999282F8809000006E
:020000040030CA
:0100010021DD
:010003000EEE
:00000001FF
