:020000040000FA
:0600000075EF02F0120092
:020006001200E6
:060008008FEF00F0120072
:02000E000100EF
:0C00100014050000800000001400000037
:04001C00D9CFE6FF53
:10002000E1CFD9FF0001806BFD0EDBCF02F0FE0EA9
:10003000DBCF03F0D890035004E6E80E025C030E19
:1000400003580CE3D950FD0FE96EFF0EDA20EA6E7B
:10005000E80EEE5E030EED5A802BE6D7816BFD0EA7
:10006000DBCF02F0FE0EDBCF03F0D890035004E6A6
:10007000640E025C000E03580CE3D950FD0FE96ECC
:10008000FF0EDA20EA6E640EEE5E000EED5A812B52
:10009000E6D7826BFD0EDBCF02F0FE0EDBCF03F066
:1000A000D890035004E60A0E025C000E03580CE3DD
:1000B000D950FD0FE96EFF0EDA20EA6E0A0EEE5EF1
:1000C000000EED5A822BE6D7836BFD0EDBCF02F0DC
:1000D000FE0EDBCF03F0D890035004E6010E025C65
:1000E000000E03580BE3D950FD0FE96EFF0EDA2026
:1000F000EA6EEE06000EED5A832BE7D7E552E7CF06
:10010000D9FF1200030E936E946A956AF00EF26E98
:10011000980ED56ED80ED76EF00ED66E1200DACFCE
:10012000E4FFE2CFDAFFE652F2A418D00001010E9C
:10013000841901E1855105E1902B000E9123922B4A
:100140009323030E841901E1855103E1922B000EE4
:100150009323F294D80ED76EF00ED66EF2A21AD078
:1001600000018451851104E1010E846F856B11D06B
:10017000010E841901E1855104E1020E846F856B43
:1001800008D0020E841901E1855103E1010E846F4C
:10019000856BF292F0A021D00001010E841901E1DB
:1001A000855104E1030E846F856B16D0020E84190D
:1001B00001E1855105E1846B856B906B916B0CD0EF
:1001C000030E841901E1855107E1010E846F856BEF
:1001D00092C090F093C091F0F090E552E5CFDAFF35
:1001E000110090DF90C0E6FF91C0E6FF17DFE552F7
:1001F000E5520001913504E290510E08270E915509
:1002000002E2906B916B0001946B956B0A0E95AFB7
:1002100002D0D89003D0945D000E95591AE280C0A8
:1002200002F0036A02BE03689451021802E195517C
:1002300003180BE1860E9425E96E000E9521EA6EF7
:10024000EFCF96F0976B96BF9769942B000E95238E
:10025000DDD796C082FF700E836E946B956B640E33
:1002600095AF02D0D89003D0945D000E955904E26A
:10027000942B000E9523F3D78368946B956B640ED3
:1002800095AF02D0D89003D0945D000E955904E24A
:10029000942B000E9523F3D7946B956B0A0E95AFB4
:1002A00002D0D89003D0945D000E95591AE281C017
:1002B00002F0036A02BE03689451021802E19551EC
:1002C00003180BE1860E9425E96E000E9521EA6E67
:1002D000EFCF98F0996B98BF9969942B000E9523F6
:1002E000DDD798C082FFB00E836E946B956B640E61
:1002F00095AF02D0D89003D0945D000E955904E2DA
:10030000942B000E9523F3D78368946B956B640E42
:1003100095AF02D0D89003D0945D000E955904E2B9
:10032000942B000E9523F3D7946B956B0A0E95AF23
:1003300002D0D89003D0945D000E95591AE282C085
:1003400002F0036A02BE03689451021802E195515B
:1003500003180BE1860E9425E96E000E9521EA6ED6
:10036000EFCF9AF09B6B9ABF9B69942B000E95235D
:10037000DDD79AC082FFD00E836E946B956B640EAE
:1003800095AF02D0D89003D0945D000E955904E249
:10039000942B000E9523F3D78368946B956B640EB2
:1003A00095AF02D0D89003D0945D000E955904E229
:1003B000942B000E9523F3D7946B956B0A0E95AF93
:1003C00002D0D89003D0945D000E95591AE283C0F4
:1003D00002F0036A02BE03689451021802E19551CB
:1003E00003180BE1860E9425E96E000E9521EA6E46
:1003F000EFCF9CF09D6B9CBF9D69942B000E9523C5
:10040000DDD79CC082FFE00E836E946B956B640E0B
:1004100095AF02D0D89003D0945D000E955904E2B8
:10042000942B000E9523F3D78368946B956B640E21
:1004300095AF02D0D89003D0945D000E955904E298
:0C044000942B000E9523F3D7CDD61200AC
:04044C000E0EF66E2C
:10045000000EF76E000EF86E00010900F550A36F54
:100460000900F550A46F03E1A36701D03DD0090056
:10047000F5509E6F0900F5509F6F0900F550A06F71
:1004800009000900F550E96E0900F550EA6E09000F
:1004900009000900F550A16F0900F550A26F09008D
:1004A0000900F6CFA5F0F7CFA6F0F8CFA7F09EC0D1
:1004B000F6FF9FC0F7FFA0C0F8FF0001A15302E1C3
:1004C000A25307E00900F550EE6EA107F8E2A2077B
:1004D000F9D7A5C0F6FFA6C0F7FFA7C0F8FF000137
:0A04E000A307000EA45BBFD71200B3
:0604EA0014EE00F024EE08
:1004F00000F0F86A019C26EC02F003EC00F0F1EC4D
:0605000000F0FBD7120021
:0A05060000EE00F00F0EEE6AEA624C
:04051000FDD7120001
:0C051400000000000000C0F9A4B09992A3
:0805200082F880900000000049
:020000040030CA
:0100010021DD
:010003000EEE
:00000001FF
