:020000040000FA
:0600000000F0E4EF00F047
:10000800FFFF2582F2A40BEF00F00EEF00F0FFFFD8
:1000180097EF00F0FFFFD80ED76EEF0ED66E0150A7
:100028000210D8A41AEF00F01DEF00F0FFFF95EFC3
:1000380000F0FFFF094A0A2A0A500AE10A0E095C81
:10004800D8A029EF00F02CEF00F0FFFF3DEF00F003
:10005800FFFF09C01DF00AC01EF0000E206E0A0E38
:100068001F6EE6EC00F01DC009F01EC00AF0074A3A
:10007800082AFFFF08500AE10A0E075CD8A047EFDC
:1000880000F04AEF00F0FFFF5BEF00F0FFFF07C052
:100098001DF008C01EF0000E206E0A0E1F6EE6EC62
:1000A80000F01DC007F01EC008F0054A062AFFFF31
:1000B80006500AE10A0E055CD8A065EF00F068EF6B
:1000C80000F0FFFF79EF00F0FFFF05C01DF006C04C
:1000D8001EF0000E206E0A0E1F6EE6EC00F01DC02A
:1000E80005F01EC006F0034A042AFFFF04500AE187
:1000F8000A0E035CD8A083EF00F086EF00F0FFFF44
:1001080095EF00F0FFFF03C01DF004C01EF0000EC5
:10011800206E0A0E1F6EE6EC00F01DC003F01EC034
:1001280004F0FFFFF294FFFFF2A29DEF00F0A0EFB2
:1001380000F0FFFFB9EF00F0FFFF01040210D8A4A0
:10014800A8EF00F0ABEF00F0FFFFB2EF00F0FFFF09
:10015800000E026E000E016EB7EF00F0FFFF000EFA
:10016800026E010E016EFFFFF292FFFFF0A0BFEFDB
:1001780000F0C2EF00F0FFFFE0EF00F0FFFF010426
:100188000210D8A4CAEF00F0CDEF00F0FFFFDEEFB9
:1001980000F0FFFF000E066E000E056E000E086EE2
:1001A800000E076E000E0A6E000E096E000E046E39
:1001B800000E036EFFFFF090FFFF25921100FFFF76
:1001C8005DEF01F0FFFF1F502010D8B4EEEF00F0F4
:1001D800F1EF00F0FFFF1EEF01F0FFFF010E216EAF
:1001E800FBEF00F0FFFFD8901F362036212AFFFFD3
:1001F80020AE01EF01F004EF01F0FFFFF6EF00F091
:10020800FFFFFFFF1F501D5C20501E58D8A00FEFA6
:1002180001F012EF01F0FFFF17EF01F0FFFF1F5091
:100228001D5E20501E5AFFFFD89020321F32212E0B
:1002380005EF01F0FFFF1DC01DF01EC01EF01200EB
:10024800FFFFFFFFFFFFAFEC01F092EC01F0C8ECFD
:1002580001F0C2EC01F0FFFF03C022F004C023F05C
:10026800FE0E246EA1EC01F078EC01F005C022F03E
:1002780006C023F0FD0E246EA1EC01F0839078EC0B
:1002880001F007C022F008C023F0BF0E246EA1ECD5
:1002980001F078EC01F009C022F00AC023F07F0ECB
:1002A800246EA1EC01F078EC01F02FEF01F0E4EFFF
:1002B80000F0780EF66E030EF76E000EF86E00EE84
:1002C80011F010EE0CF00900F5CFEEFFE550E1500B
:1002D800FAE100EE01F0100EEE6AE806FDE1259065
:1002E8002592000126EF01F0FFFF000E0C6E000EB4
:1002F8000B6E82EF01F0FFFF0B4A0C2AFFFF0C5038
:100308000AE1C80E0B5CD8A08CEF01F08FEF01F06A
:10031800FFFF7FEF01F0FFFF1200FFFFFFFFD58E09
:10032800D59CD59AD598D586F28EF28AF294D80EB5
:10033800D76EEF0ED66E1200FFFFFFFF8268110E18
:100348002224D96E000E2320DA6EDF50836E24C07B
:1003580082FF1200FFFFFFFF000E946E000E956EE5
:10036800030E936E000E826E000E836E1200FFFF66
:10037800039F250D9949411F0109C800FFFF81828C
:10038800F28EF0861200FFFFFFFF8180F28EF28866
:060398001200FFFFFFFF51
:020000040020DA
:08000000FFFFFFFFFFFFFFFF00
:020000040030CA
:0E000000FF210F0EFF0185FF0FC00FE00F4024
:00000001FF
